{
  "contractName": "Hire",
  "abi": [
    {
      "constant": true,
      "inputs": [],
      "name": "markCompleted",
      "outputs": [
        {
          "name": "",
          "type": "bool"
        }
      ],
      "payable": false,
      "stateMutability": "view",
      "type": "function"
    },
    {
      "constant": true,
      "inputs": [],
      "name": "goodWork",
      "outputs": [
        {
          "name": "",
          "type": "bool"
        }
      ],
      "payable": false,
      "stateMutability": "view",
      "type": "function"
    },
    {
      "constant": true,
      "inputs": [],
      "name": "badWork",
      "outputs": [
        {
          "name": "",
          "type": "bool"
        }
      ],
      "payable": false,
      "stateMutability": "view",
      "type": "function"
    },
    {
      "constant": true,
      "inputs": [],
      "name": "startTime",
      "outputs": [
        {
          "name": "",
          "type": "uint256"
        }
      ],
      "payable": false,
      "stateMutability": "view",
      "type": "function"
    },
    {
      "constant": true,
      "inputs": [],
      "name": "owner",
      "outputs": [
        {
          "name": "",
          "type": "address"
        }
      ],
      "payable": false,
      "stateMutability": "view",
      "type": "function"
    },
    {
      "constant": true,
      "inputs": [],
      "name": "employee",
      "outputs": [
        {
          "name": "",
          "type": "address"
        }
      ],
      "payable": false,
      "stateMutability": "view",
      "type": "function"
    },
    {
      "constant": true,
      "inputs": [],
      "name": "endTimestamp",
      "outputs": [
        {
          "name": "",
          "type": "uint256"
        }
      ],
      "payable": false,
      "stateMutability": "view",
      "type": "function"
    },
    {
      "constant": true,
      "inputs": [],
      "name": "timeframe",
      "outputs": [
        {
          "name": "",
          "type": "uint256"
        }
      ],
      "payable": false,
      "stateMutability": "view",
      "type": "function"
    },
    {
      "inputs": [
        {
          "name": "_endTimestamp",
          "type": "uint256"
        }
      ],
      "payable": false,
      "stateMutability": "nonpayable",
      "type": "constructor"
    },
    {
      "anonymous": false,
      "inputs": [
        {
          "indexed": false,
          "name": "amount",
          "type": "uint256"
        }
      ],
      "name": "_deposit",
      "type": "event"
    },
    {
      "anonymous": false,
      "inputs": [
        {
          "indexed": false,
          "name": "employee",
          "type": "address"
        }
      ],
      "name": "_handshake",
      "type": "event"
    },
    {
      "anonymous": false,
      "inputs": [],
      "name": "_completed",
      "type": "event"
    },
    {
      "anonymous": false,
      "inputs": [
        {
          "indexed": false,
          "name": "amount",
          "type": "uint256"
        }
      ],
      "name": "_pay",
      "type": "event"
    },
    {
      "constant": false,
      "inputs": [],
      "name": "handShake",
      "outputs": [],
      "payable": false,
      "stateMutability": "nonpayable",
      "type": "function"
    },
    {
      "constant": true,
      "inputs": [],
      "name": "isCompleted",
      "outputs": [
        {
          "name": "",
          "type": "bool"
        }
      ],
      "payable": false,
      "stateMutability": "view",
      "type": "function"
    },
    {
      "constant": true,
      "inputs": [],
      "name": "passedTimeFrame",
      "outputs": [
        {
          "name": "",
          "type": "bool"
        }
      ],
      "payable": false,
      "stateMutability": "view",
      "type": "function"
    },
    {
      "constant": false,
      "inputs": [],
      "name": "pay",
      "outputs": [],
      "payable": false,
      "stateMutability": "nonpayable",
      "type": "function"
    },
    {
      "constant": false,
      "inputs": [],
      "name": "complete",
      "outputs": [],
      "payable": false,
      "stateMutability": "nonpayable",
      "type": "function"
    },
    {
      "constant": false,
      "inputs": [],
      "name": "markGood",
      "outputs": [],
      "payable": false,
      "stateMutability": "nonpayable",
      "type": "function"
    },
    {
      "constant": false,
      "inputs": [],
      "name": "markBad",
      "outputs": [],
      "payable": false,
      "stateMutability": "nonpayable",
      "type": "function"
    }
  ],
  "bytecode": "0x60806040526000600560006101000a81548160ff0219169083151502179055506000600560016101000a81548160ff0219169083151502179055506000600560026101000a81548160ff02191690831515021790555034801561006157600080fd5b50604051602080610a9b8339810180604052602081101561008157600080fd5b8101908080519060200190929190505050336000806101000a81548173ffffffffffffffffffffffffffffffffffffffff021916908373ffffffffffffffffffffffffffffffffffffffff160217905550806004819055506100e761010960201b60201c565b6003819055506100fb61010960201b60201c565b810360028190555050610111565b600042905090565b61097b806101206000396000f3fe608060405234801561001057600080fd5b50600436106100f55760003560e01c806378e9792511610097578063a85adeab11610066578063a85adeab1461025c578063ba59b66f1461027a578063f986c2fc14610298578063fa391c64146102a2576100f5565b806378e97925146101a05780638da5cb5b146101be5780639761076f14610208578063a0a1a7d714610212576100f5565b806344b45c50116100d357806344b45c5014610130578063522e1177146101525780635b43d07b1461015c57806363ecbf4e1461017e576100f5565b80631b9265b8146100fa5780632ad873241461010457806331f0759c14610126575b600080fd5b6101026102c4565b005b61010c6104ff565b604051808215151515815260200191505060405180910390f35b61012e610516565b005b6101386105ac565b604051808215151515815260200191505060405180910390f35b61015a6105bf565b005b6101646106f0565b604051808215151515815260200191505060405180910390f35b610186610703565b604051808215151515815260200191505060405180910390f35b6101a8610716565b6040518082815260200191505060405180910390f35b6101c661071c565b604051808273ffffffffffffffffffffffffffffffffffffffff1673ffffffffffffffffffffffffffffffffffffffff16815260200191505060405180910390f35b610210610741565b005b61021a610848565b604051808273ffffffffffffffffffffffffffffffffffffffff1673ffffffffffffffffffffffffffffffffffffffff16815260200191505060405180910390f35b61026461086e565b6040518082815260200191505060405180910390f35b610282610874565b6040518082815260200191505060405180910390f35b6102a061087a565b005b6102aa610910565b604051808215151515815260200191505060405180910390f35b3373ffffffffffffffffffffffffffffffffffffffff16600160009054906101000a900473ffffffffffffffffffffffffffffffffffffffff1673ffffffffffffffffffffffffffffffffffffffff161461031e57600080fd5b60003073ffffffffffffffffffffffffffffffffffffffff16319050600560019054906101000a900460ff1615610364576005600682028161035c57fe5b04905061038b565b600560029054906101000a900460ff161561038a576005600482028161038657fe5b0490505b5b6103936104ff565b1561043d57600160009054906101000a900473ffffffffffffffffffffffffffffffffffffffff1673ffffffffffffffffffffffffffffffffffffffff166108fc829081150290604051600060405180830381858888f19350505050158015610400573d6000803e3d6000fd5b507fc1c4276d8132dd667673edcac2941584fd465e285b45009ced667891a23f2dac816040518082815260200191505060405180910390a16104fc565b600060025460035461044d610947565b0383028161045757fe5b049050600160009054906101000a900473ffffffffffffffffffffffffffffffffffffffff1673ffffffffffffffffffffffffffffffffffffffff166108fc829081150290604051600060405180830381858888f193505050501580156104c2573d6000803e3d6000fd5b507fc1c4276d8132dd667673edcac2941584fd465e285b45009ced667891a23f2dac816040518082815260200191505060405180910390a1505b50565b600060025460035461050f610947565b0311905090565b3373ffffffffffffffffffffffffffffffffffffffff166000809054906101000a900473ffffffffffffffffffffffffffffffffffffffff1673ffffffffffffffffffffffffffffffffffffffff161461056f57600080fd5b60011515600560009054906101000a900460ff1615151461058f57600080fd5b6001600560026101000a81548160ff021916908315150217905550565b600560009054906101000a900460ff1681565b3373ffffffffffffffffffffffffffffffffffffffff166000809054906101000a900473ffffffffffffffffffffffffffffffffffffffff1673ffffffffffffffffffffffffffffffffffffffff161461061857600080fd5b60006003541161062757600080fd5b600160009054906101000a900473ffffffffffffffffffffffffffffffffffffffff1673ffffffffffffffffffffffffffffffffffffffff166108fc3073ffffffffffffffffffffffffffffffffffffffff16319081150290604051600060405180830381858888f193505050501580156106a6573d6000803e3d6000fd5b506001600560006101000a81548160ff0219169083151502179055507ffb8319c9ef827981794b0a85f81971559f2ab35af6743bbc4a25bf7a66bdc46660405160405180910390a1565b600560019054906101000a900460ff1681565b600560029054906101000a900460ff1681565b60035481565b6000809054906101000a900473ffffffffffffffffffffffffffffffffffffffff1681565b3373ffffffffffffffffffffffffffffffffffffffff166000809054906101000a900473ffffffffffffffffffffffffffffffffffffffff1673ffffffffffffffffffffffffffffffffffffffff16141561079b57600080fd5b33600160006101000a81548173ffffffffffffffffffffffffffffffffffffffff021916908373ffffffffffffffffffffffffffffffffffffffff160217905550426003819055507f1e4f6879a608b32c57659f68ccbfd74124befec5cf79d8c4a9aadae1577a70ea33604051808273ffffffffffffffffffffffffffffffffffffffff1673ffffffffffffffffffffffffffffffffffffffff16815260200191505060405180910390a1565b600160009054906101000a900473ffffffffffffffffffffffffffffffffffffffff1681565b60045481565b60025481565b3373ffffffffffffffffffffffffffffffffffffffff166000809054906101000a900473ffffffffffffffffffffffffffffffffffffffff1673ffffffffffffffffffffffffffffffffffffffff16146108d357600080fd5b60011515600560009054906101000a900460ff161515146108f357600080fd5b6001600560016101000a81548160ff021916908315150217905550565b6000600560009054906101000a900460ff168061093157506109306104ff565b5b1561093f5760019050610944565b600090505b90565b60004290509056fea165627a7a7230582075b130e5dc910e019584423d3cae0a32b5d791e8bd98271c1244d80116c321380029",
  "source": "pragma solidity ^0.5.0;\n\ncontract Hire{\n\n    address public owner;\n    address payable public employee;\n    uint256 public timeframe;\n    uint256 public startTime;\n    uint256 public endTimestamp;\n    bool public markCompleted = false;\n    bool public goodWork = false;\n    bool public badWork = false;\n\n    event _deposit(uint amount);\n    event _handshake(address payable employee);\n    event _completed();\n    event _pay(uint amount);\n\n    constructor (uint256 _endTimestamp) public {\n      owner = msg.sender;\n      endTimestamp = _endTimestamp;\n      startTime = getTimestamp();\n      timeframe = _endTimestamp - getTimestamp();\n    }\n\n    modifier onlyStarted() {\n      require(startTime > 0);\n      _;\n    }\n\n    modifier onlyOwner() {\n      require(owner == msg.sender);\n      _;\n    }\n\n    modifier onlyEmployee() {\n      require(employee == msg.sender);\n      _;\n    }\n\n    modifier notOwner() {\n      require(owner != msg.sender);\n      _;\n    }\n\n    modifier onlyComplete() {\n      require(markCompleted == true);\n      _;\n    }\n\n    function handShake () notOwner public {\n        employee = msg.sender;\n        startTime = now;\n        emit _handshake(msg.sender);\n    }\n    \n    function getTimestamp() view internal returns (uint256) {\n      return now;\n    }\n\n    function isCompleted() view public returns (bool) {\n      if (markCompleted || passedTimeFrame()) {\n        return true;\n      }\n      return false;\n    }\n\n    function passedTimeFrame() view public returns (bool) {\n      return getTimestamp() - startTime > timeframe;\n    }\n\n    function pay() onlyEmployee public {\n      uint balance = address(this).balance;\n      if(goodWork){\n        balance = balance * 6/5;\n      }\n      else if(badWork){\n        balance = balance * 4/5;\n      }\n      if (passedTimeFrame()) {\n          employee.transfer(balance);\n          emit _pay(balance);\n      } else {\n        uint amountFast = balance * (getTimestamp() - startTime) / timeframe;\n        employee.transfer(amountFast);\n        emit _pay(amountFast);\n      }\n    }\n\n    function complete() onlyOwner onlyStarted public {\n      employee.transfer(address(this).balance);\n      markCompleted = true;\n      emit _completed();\n    }\n\n    function markGood() onlyOwner onlyComplete public {\n      goodWork = true;\n    }\n\n    function markBad() onlyOwner onlyComplete public {\n      badWork = true;\n    }\n}",
  "sourcePath": "/Users/gabrielaalmeida/Documents/Insper/10 semestre/Ativos/Raul/projetoFinal/freelancers-blockchain/contracts/Hire.sol",
  "compiler": {
    "name": "solc",
    "version": "0.5.8+commit.23d335f2.Emscripten.clang"
  },
  "schemaVersion": "3.0.16",
  "updatedAt": "2019-11-28T12:51:09.127Z",
  "devdoc": {
    "methods": {}
  },
  "userdoc": {
    "methods": {}
  }
}