{
  "contractName": "Hire",
  "abi": [
    {
      "constant": true,
      "inputs": [],
      "name": "extraFast",
      "outputs": [
        {
          "name": "",
          "type": "bool"
        }
      ],
      "payable": false,
      "stateMutability": "view",
      "type": "function"
    },
    {
      "constant": true,
      "inputs": [],
      "name": "markCompleted",
      "outputs": [
        {
          "name": "",
          "type": "bool"
        }
      ],
      "payable": false,
      "stateMutability": "view",
      "type": "function"
    },
    {
      "constant": true,
      "inputs": [],
      "name": "goodWork",
      "outputs": [
        {
          "name": "",
          "type": "bool"
        }
      ],
      "payable": false,
      "stateMutability": "view",
      "type": "function"
    },
    {
      "constant": true,
      "inputs": [],
      "name": "badWork",
      "outputs": [
        {
          "name": "",
          "type": "bool"
        }
      ],
      "payable": false,
      "stateMutability": "view",
      "type": "function"
    },
    {
      "constant": true,
      "inputs": [],
      "name": "startTime",
      "outputs": [
        {
          "name": "",
          "type": "uint256"
        }
      ],
      "payable": false,
      "stateMutability": "view",
      "type": "function"
    },
    {
      "constant": true,
      "inputs": [],
      "name": "owner",
      "outputs": [
        {
          "name": "",
          "type": "address"
        }
      ],
      "payable": false,
      "stateMutability": "view",
      "type": "function"
    },
    {
      "constant": true,
      "inputs": [],
      "name": "employee",
      "outputs": [
        {
          "name": "",
          "type": "address"
        }
      ],
      "payable": false,
      "stateMutability": "view",
      "type": "function"
    },
    {
      "constant": true,
      "inputs": [],
      "name": "endTimestamp",
      "outputs": [
        {
          "name": "",
          "type": "uint256"
        }
      ],
      "payable": false,
      "stateMutability": "view",
      "type": "function"
    },
    {
      "constant": true,
      "inputs": [],
      "name": "timeframe",
      "outputs": [
        {
          "name": "",
          "type": "uint256"
        }
      ],
      "payable": false,
      "stateMutability": "view",
      "type": "function"
    },
    {
      "inputs": [
        {
          "name": "_endTimestamp",
          "type": "uint256"
        }
      ],
      "payable": false,
      "stateMutability": "nonpayable",
      "type": "constructor"
    },
    {
      "anonymous": false,
      "inputs": [
        {
          "indexed": false,
          "name": "amount",
          "type": "uint256"
        }
      ],
      "name": "_deposit",
      "type": "event"
    },
    {
      "anonymous": false,
      "inputs": [
        {
          "indexed": false,
          "name": "employee",
          "type": "address"
        }
      ],
      "name": "_handshake",
      "type": "event"
    },
    {
      "anonymous": false,
      "inputs": [],
      "name": "_completed",
      "type": "event"
    },
    {
      "anonymous": false,
      "inputs": [
        {
          "indexed": false,
          "name": "amount",
          "type": "uint256"
        }
      ],
      "name": "_pay",
      "type": "event"
    },
    {
      "constant": false,
      "inputs": [],
      "name": "handShake",
      "outputs": [],
      "payable": false,
      "stateMutability": "nonpayable",
      "type": "function"
    },
    {
      "constant": true,
      "inputs": [],
      "name": "isCompleted",
      "outputs": [
        {
          "name": "",
          "type": "bool"
        }
      ],
      "payable": false,
      "stateMutability": "view",
      "type": "function"
    },
    {
      "constant": true,
      "inputs": [],
      "name": "passedTimeFrame",
      "outputs": [
        {
          "name": "",
          "type": "bool"
        }
      ],
      "payable": false,
      "stateMutability": "view",
      "type": "function"
    },
    {
      "constant": false,
      "inputs": [],
      "name": "pay",
      "outputs": [],
      "payable": false,
      "stateMutability": "nonpayable",
      "type": "function"
    },
    {
      "constant": false,
      "inputs": [],
      "name": "complete",
      "outputs": [],
      "payable": false,
      "stateMutability": "nonpayable",
      "type": "function"
    },
    {
      "constant": false,
      "inputs": [],
      "name": "markGood",
      "outputs": [],
      "payable": false,
      "stateMutability": "nonpayable",
      "type": "function"
    },
    {
      "constant": false,
      "inputs": [],
      "name": "markBad",
      "outputs": [],
      "payable": false,
      "stateMutability": "nonpayable",
      "type": "function"
    },
    {
      "constant": false,
      "inputs": [],
      "name": "markExtraFast",
      "outputs": [],
      "payable": false,
      "stateMutability": "nonpayable",
      "type": "function"
    }
  ],
  "bytecode": "0x60806040526000600560006101000a81548160ff0219169083151502179055506000600560016101000a81548160ff0219169083151502179055506000600560026101000a81548160ff0219169083151502179055506000600560036101000a81548160ff02191690831515021790555034801561007c57600080fd5b50604051602080610c9c8339810180604052602081101561009c57600080fd5b8101908080519060200190929190505050336000806101000a81548173ffffffffffffffffffffffffffffffffffffffff021916908373ffffffffffffffffffffffffffffffffffffffff1602179055508060048190555061010261012460201b60201c565b60038190555061011661012460201b60201c565b81036002819055505061012c565b600042905090565b610b618061013b6000396000f3fe608060405234801561001057600080fd5b506004361061010b5760003560e01c806363ecbf4e116100a2578063a0a1a7d711610071578063a0a1a7d714610254578063a85adeab1461029e578063ba59b66f146102bc578063f986c2fc146102da578063fa391c64146102e45761010b565b806363ecbf4e146101c057806378e97925146101e25780638da5cb5b146102005780639761076f1461024a5761010b565b806344b45c50116100de57806344b45c5014610168578063522e11771461018a5780635349185a146101945780635b43d07b1461019e5761010b565b80630987067e146101105780631b9265b8146101325780632ad873241461013c57806331f0759c1461015e575b600080fd5b610118610306565b604051808215151515815260200191505060405180910390f35b61013a610319565b005b61014461066f565b604051808215151515815260200191505060405180910390f35b610166610686565b005b61017061071c565b604051808215151515815260200191505060405180910390f35b61019261072f565b005b61019c610860565b005b6101a66108d6565b604051808215151515815260200191505060405180910390f35b6101c86108e9565b604051808215151515815260200191505060405180910390f35b6101ea6108fc565b6040518082815260200191505060405180910390f35b610208610902565b604051808273ffffffffffffffffffffffffffffffffffffffff1673ffffffffffffffffffffffffffffffffffffffff16815260200191505060405180910390f35b610252610927565b005b61025c610a2e565b604051808273ffffffffffffffffffffffffffffffffffffffff1673ffffffffffffffffffffffffffffffffffffffff16815260200191505060405180910390f35b6102a6610a54565b6040518082815260200191505060405180910390f35b6102c4610a5a565b6040518082815260200191505060405180910390f35b6102e2610a60565b005b6102ec610af6565b604051808215151515815260200191505060405180910390f35b600560039054906101000a900460ff1681565b3373ffffffffffffffffffffffffffffffffffffffff16600160009054906101000a900473ffffffffffffffffffffffffffffffffffffffff1673ffffffffffffffffffffffffffffffffffffffff161461037357600080fd5b60003073ffffffffffffffffffffffffffffffffffffffff1631905061039761066f565b1561049257600560019054906101000a900460ff16156103c657600560068202816103be57fe5b0490506103ed565b600560029054906101000a900460ff16156103ec57600560048202816103e857fe5b0490505b5b600160009054906101000a900473ffffffffffffffffffffffffffffffffffffffff1673ffffffffffffffffffffffffffffffffffffffff166108fc829081150290604051600060405180830381858888f19350505050158015610455573d6000803e3d6000fd5b507fc1c4276d8132dd667673edcac2941584fd465e285b45009ced667891a23f2dac816040518082815260200191505060405180910390a16105cc565b6004600360025402816104a157fe5b046003546104ad610b2d565b0310156104da57600560029054906101000a900460ff166104d957600a600b8202816104d557fe5b0490505b5b600560019054906101000a900460ff161561050457600560068202816104fc57fe5b04905061052b565b600560029054906101000a900460ff161561052a576005600482028161052657fe5b0490505b5b600160009054906101000a900473ffffffffffffffffffffffffffffffffffffffff1673ffffffffffffffffffffffffffffffffffffffff166108fc829081150290604051600060405180830381858888f19350505050158015610593573d6000803e3d6000fd5b507fc1c4276d8132dd667673edcac2941584fd465e285b45009ced667891a23f2dac816040518082815260200191505060405180910390a15b600160009054906101000a900473ffffffffffffffffffffffffffffffffffffffff1673ffffffffffffffffffffffffffffffffffffffff166108fc829081150290604051600060405180830381858888f19350505050158015610634573d6000803e3d6000fd5b507fc1c4276d8132dd667673edcac2941584fd465e285b45009ced667891a23f2dac816040518082815260200191505060405180910390a150565b600060025460035461067f610b2d565b0311905090565b3373ffffffffffffffffffffffffffffffffffffffff166000809054906101000a900473ffffffffffffffffffffffffffffffffffffffff1673ffffffffffffffffffffffffffffffffffffffff16146106df57600080fd5b60011515600560009054906101000a900460ff161515146106ff57600080fd5b6001600560026101000a81548160ff021916908315150217905550565b600560009054906101000a900460ff1681565b3373ffffffffffffffffffffffffffffffffffffffff166000809054906101000a900473ffffffffffffffffffffffffffffffffffffffff1673ffffffffffffffffffffffffffffffffffffffff161461078857600080fd5b60006003541161079757600080fd5b600160009054906101000a900473ffffffffffffffffffffffffffffffffffffffff1673ffffffffffffffffffffffffffffffffffffffff166108fc3073ffffffffffffffffffffffffffffffffffffffff16319081150290604051600060405180830381858888f19350505050158015610816573d6000803e3d6000fd5b506001600560006101000a81548160ff0219169083151502179055507ffb8319c9ef827981794b0a85f81971559f2ab35af6743bbc4a25bf7a66bdc46660405160405180910390a1565b3373ffffffffffffffffffffffffffffffffffffffff166000809054906101000a900473ffffffffffffffffffffffffffffffffffffffff1673ffffffffffffffffffffffffffffffffffffffff16146108b957600080fd5b6001600560036101000a81548160ff021916908315150217905550565b600560019054906101000a900460ff1681565b600560029054906101000a900460ff1681565b60035481565b6000809054906101000a900473ffffffffffffffffffffffffffffffffffffffff1681565b3373ffffffffffffffffffffffffffffffffffffffff166000809054906101000a900473ffffffffffffffffffffffffffffffffffffffff1673ffffffffffffffffffffffffffffffffffffffff16141561098157600080fd5b33600160006101000a81548173ffffffffffffffffffffffffffffffffffffffff021916908373ffffffffffffffffffffffffffffffffffffffff160217905550426003819055507f1e4f6879a608b32c57659f68ccbfd74124befec5cf79d8c4a9aadae1577a70ea33604051808273ffffffffffffffffffffffffffffffffffffffff1673ffffffffffffffffffffffffffffffffffffffff16815260200191505060405180910390a1565b600160009054906101000a900473ffffffffffffffffffffffffffffffffffffffff1681565b60045481565b60025481565b3373ffffffffffffffffffffffffffffffffffffffff166000809054906101000a900473ffffffffffffffffffffffffffffffffffffffff1673ffffffffffffffffffffffffffffffffffffffff1614610ab957600080fd5b60011515600560009054906101000a900460ff16151514610ad957600080fd5b6001600560016101000a81548160ff021916908315150217905550565b6000600560009054906101000a900460ff1680610b175750610b1661066f565b5b15610b255760019050610b2a565b600090505b90565b60004290509056fea165627a7a72305820455d21725ae9924956504cba8d4e9ab2b1bb9d90f09e70d339d5488b601b8b4c0029",
  "source": "pragma solidity ^0.5.0;\n\ncontract Hire{\n\n    address public owner;\n    address payable public employee;\n    uint256 public timeframe;\n    uint256 public startTime;\n    uint256 public endTimestamp;\n    bool public markCompleted = false;\n    bool public goodWork = false;\n    bool public badWork = false;\n    bool public extraFast = false;\n\n    event _deposit(uint amount);\n    event _handshake(address payable employee);\n    event _completed();\n    event _pay(uint amount);\n\n    constructor (uint256 _endTimestamp) public {\n      owner = msg.sender;\n      endTimestamp = _endTimestamp;\n      startTime = getTimestamp();\n      timeframe = _endTimestamp - getTimestamp();\n    }\n\n    modifier onlyStarted() {\n      require(startTime > 0);\n      _;\n    }\n\n    modifier onlyOwner() {\n      require(owner == msg.sender);\n      _;\n    }\n\n    modifier onlyEmployee() {\n      require(employee == msg.sender);\n      _;\n    }\n\n    modifier notOwner() {\n      require(owner != msg.sender);\n      _;\n    }\n\n    modifier onlyComplete() {\n      require(markCompleted == true);\n      _;\n    }\n\n    function handShake () notOwner public {\n        employee = msg.sender;\n        startTime = now;\n        emit _handshake(msg.sender);\n    }\n    \n    function getTimestamp() view internal returns (uint256) {\n      return now;\n    }\n\n    function isCompleted() view public returns (bool) {\n      if (markCompleted || passedTimeFrame()) {\n        return true;\n      }\n      return false;\n    }\n\n    function passedTimeFrame() view public returns (bool) {\n      return getTimestamp() - startTime > timeframe;\n    }\n\n    function pay() onlyEmployee public {\n      uint balance = address(this).balance;\n      if (passedTimeFrame()) {\n        if(goodWork){\n          balance = balance * 6/5;\n        }\n        else if(badWork){\n          balance = balance * 4/5;\n        }\n        employee.transfer(balance);\n        emit _pay(balance);\n      } \n      else {\n        if ((getTimestamp() - startTime) < timeframe * 3/4 ){\n          if(!badWork){\n            balance = balance * 11/10;\n          }\n        }\n        if(goodWork){\n          balance = balance * 6/5;\n        }\n        else if(badWork){\n          balance = balance * 4/5;\n        }\n        employee.transfer(balance);\n        emit _pay(balance);\n      }\n      employee.transfer(balance);\n      emit _pay(balance);\n    }\n\n    function complete() onlyOwner onlyStarted public {\n      employee.transfer(address(this).balance);\n      markCompleted = true;\n      emit _completed();\n    }\n\n    function markGood() onlyOwner onlyComplete public {\n      goodWork = true;\n    }\n\n    function markBad() onlyOwner onlyComplete public {\n      badWork = true;\n    }\n\n    function markExtraFast() onlyOwner public {\n      extraFast = true;\n    }\n}",
  "sourcePath": "/Users/gabrielaalmeida/Documents/Insper/10 semestre/Ativos/Raul/projetoFinal/freelancers-blockchain/contracts/Hire.sol",
  "compiler": {
    "name": "solc",
    "version": "0.5.8+commit.23d335f2.Emscripten.clang"
  },
  "schemaVersion": "3.0.16",
  "updatedAt": "2019-11-28T13:14:38.400Z",
  "devdoc": {
    "methods": {}
  },
  "userdoc": {
    "methods": {}
  }
}